:100000000C945D000C9485000C9485000C94850084
:100010000C9485000C9485000C9485000C9485004C
:100020000C9485000C9485000C9485000C9485003C
:100030000C9485000C9485000C9485000C9485002C
:100040000C9431030C9485000C94FF020C94D9029B
:100050000C9485000C9485000C9485000C9485000C
:100060000C9485000C9485000000000024002700FB
:100070002A0000000000250028002B0004040404CE
:100080000404040402020202020203030303030342
:10009000010204081020408001020408102001021F
:1000A00004081020000000080002010000030407FB
:1000B00000000000000000007B0311241FBECFEFF2
:1000C000D8E0DEBFCDBF22E0A8E3B1E001C01D92C1
:1000D000AA32B207E1F711E0A0E0B1E0ECE3FCE006
:1000E00002C005900D92A833B107D9F710E0CDE515
:1000F000D0E004C02197FE010E941106CC35D10743
:10010000C9F70E94BA030C941C060C940000E1EBA2
:10011000F0E09491EDE9F0E02491E9E8F0E0E49179
:10012000EE2309F43CC0992339F1933091F038F46F
:100130009130A9F0923001F594B59F7D12C09730AF
:1001400091F09830A1F09430B9F4909180009F7DA7
:1001500003C0909180009F77909380000DC094B56C
:100160009F7794BD09C09091B0009F7703C0909194
:10017000B0009F7D9093B000F0E0EE0FFF1FEE58AF
:10018000FF4FA591B4919FB7F894811104C08C9151
:100190002095282302C0EC912E2B2C939FBF08950D
:1001A000CF92DF92EF92FF920F931F93CF93DF9343
:1001B0006C017A018B01C0E0D0E0CE15DF0581F043
:1001C000D8016D918D01D601ED91FC910190F081E6
:1001D000E02DC6010995892B11F02196EECF7E0105
:1001E000C701DF91CF911F910F91FF90EF90DF90AA
:1001F000CF900895089580E090E00895FC01538D1C
:10020000448D252F30E0842F90E0821B930B5417F0
:1002100010F0CF96089501970895FC01918D828D7D
:10022000981761F0828DDF01A80FB11D5D968C914A
:10023000928D9F5F9F73928F90E008958FEF9FEF55
:100240000895FC01918D828D981731F0828DE80F11
:10025000F11D858D90E008958FEF9FEF0895FC01CB
:10026000918D228D892F90E0805C9F4F821B910998
:100270008F739927089585E491E00E942F0121E072
:10028000892B09F420E0822F0895FC01848DDF0181
:10029000A80FB11DA35ABF4F2C91848D90E00196F9
:1002A0008F739927848FA689B7892C93A089B189E8
:1002B0008C91837080648C93938D848D981306C089
:1002C0000288F389E02D80818F7D80830895EF92ED
:1002D000FF920F931F93CF93DF93EC0181E0888F00
:1002E0009B8D8C8D981305C0E889F989808185FDE7
:1002F00026C0F62E0B8D10E00F5F1F4F0F731127D6
:10030000E02E8C8DE8120CC00FB607FCFACFE889FE
:10031000F989808185FFF5CFCE010E944501F1CF9B
:100320008B8DFE01E80FF11DE35AFF4FF0829FB75E
:10033000F8940B8FEA89FB89808180620AC09FB79D
:10034000F894EE89FF896083E889F9898081837058
:10035000806480839FBF81E090E0DF91CF911F9107
:100360000F91FF90EF900895CF93DF93EC01888D6C
:100370008823C9F0EA89FB89808185FD05C0A889A9
:10038000B9898C9186FD0FC00FB607FCF5CF80812F
:1003900085FFF2CFA889B9898C9185FFEDCFCE0179
:1003A0000E944501E7CFDF91CF91089580E090E072
:1003B000892B29F00E943B0181110C9400000895C3
:1003C0003FB7F89480913D0190913E01A0913F018B
:1003D000B091400126B5A89B05C02F3F19F00196AA
:1003E000A11DB11D3FBFBA2FA92F982F8827820FBB
:1003F000911DA11DB11DBC01CD0142E0660F771F0B
:10040000881F991F4A95D1F708958F929F92AF92B6
:10041000BF92CF92DF92EF92FF926B017C010E941C
:10042000E0014B015C01C114D104E104F104F1F0DD
:100430000E94E001DC01CB0188199909AA09BB09D6
:10044000883E9340A105B10570F321E0C21AD1089E
:10045000E108F10888EE880E83E0981EA11CB11C0B
:10046000C114D104E104F10419F7DDCFFF90EF903E
:10047000DF90CF90BF90AF909F908F9008952FB74F
:10048000F8946091390170913A0180913B0190910B
:100490003C012FBF08950F931F93CF93DF938C01DF
:1004A000EB0181E00E948700B801110F880B990BC6
:1004B0000E94050280E00E948700BE01DD0F880BCC
:1004C000990BDF91CF911F910F910C9405026AEF68
:1004D00070E08AEF90E00E944B026AEF70E08AEFD2
:1004E00090E00E944B0264EF71E08AEF90E00C9480
:1004F0004B026115710579F0FB0101900020E9F7CD
:100500003197AF01461B570BDC01ED91FC91028046
:10051000F381E02D099480E090E008958F929F92FE
:10052000AF92BF92EF92FF920F931F93CF93DF93FF
:10053000CDB7DEB7A1970FB6F894DEBF0FBECDBF23
:100540007C01FA01CB0119A2223008F42AE08E01C5
:100550000F5D1F4F822E912CA12CB12CBF01A50144
:1005600094010E94EF05F901CA01015011096A3096
:1005700014F4605D01C0695CD8016C93232B242BBB
:10058000252B61F7B801C7010E947902A1960FB629
:10059000F894DEBF0FBECDBFDF91CF911F910F91B9
:1005A000FF90EF90BF90AF909F908F9008950E9422
:1005B00017061F920F920FB60F9211242F933F939D
:1005C0004F935F936F937F938F939F93AF93BF935B
:1005D000EF93FF9385E491E00E944501FF91EF9135
:1005E000BF91AF919F918F917F916F915F914F914B
:1005F0003F912F910F900FBE0F901F9018951F9253
:100600000F920FB60F9211242F938F939F93EF9316
:10061000FF93E0915501F09156018081E0915B01DB
:10062000F0915C0182FD12C0908180915E018F5F2C
:100630008F7320915F01821751F0E0915E01F0E02D
:10064000EB5BFE4F958F80935E0101C08081FF912F
:10065000EF919F918F912F910F900FBE0F901F9050
:1006600018951F920F920FB60F9211242F933F935C
:100670008F939F93AF93BF938091390190913A01EB
:10068000A0913B01B0913C013091380123E0230F50
:100690002D3720F40196A11DB11D05C026E8230FBA
:1006A0000296A11DB11D20933801809339019093CA
:1006B0003A01A0933B01B0933C0180913D019091A0
:1006C0003E01A0913F01B09140010196A11DB11DD5
:1006D00080933D0190933E01A0933F01B093400170
:1006E000BF91AF919F918F913F912F910F900FBE2E
:1006F0000F901F901895E5E4F1E01382128288EEC6
:1007000093E0A0E0B0E084839583A683B78384E080
:1007100091E09183808385EC90E09587848784ECD9
:1007200090E09787868780EC90E0918B808B81ECBE
:1007300090E0938B828B82EC90E0958B848B86EC9F
:1007400090E0978B868B118E128E138E148EE2EEB4
:10075000F1E016821782108611861286138614869F
:10076000158616861786108A118A128A138A148AA9
:10077000158A0895789484B5826084BD84B58160BB
:1007800084BD85B5826085BD85B5816085BD80915C
:100790006E00816080936E001092810080918100D4
:1007A00082608093810080918100816080938100CC
:1007B000809180008160809380008091B10084608E
:1007C0008093B1008091B00081608093B0008091EF
:1007D0007A00846080937A0080917A0082608093AE
:1007E0007A0080917A00816080937A0080917A000B
:1007F000806880937A001092C100109226021092B5
:10080000270210922802109229021092E4011092FD
:10081000E5011092E6011092E7010E943F026B0190
:100820007C014B015C0128EB820E2BE0921EA11C87
:10083000B11C0E943F026C157D058E059F0528F0B6
:1008400086169706A806B906A0F785E491E090936E
:10085000250280932402E0915501F091560182E037
:100860008083E0915101F09152011082E091530197
:10087000F091540180E1808310925D01E091590173
:10088000F0915A0186E08083E0915701F091580180
:10089000808180618083E0915701F09158018081CF
:1008A00088608083E0915701F091580180818068D1
:1008B0008083E0915701F091580180818F7D808382
:1008C0000E943F026093E4017093E5018093E6018A
:1008D0009093E70162E171E08091240290912502FA
:1008E0000E9479020E943F026B017C014B015C0176
:1008F0003AE0830E911CA11CB11C0E943F026C15B2
:100900007D058E059F0528F086169706A806B90670
:10091000A0F781E08093F801EDE9F0E02491E9E8A7
:10092000F0E08491882399F090E0880F991FFC01F2
:10093000E859FF4FA591B491FC01EE58FF4F859106
:1009400094918FB7F894EC91E22BEC938FBF84EFE6
:10095000882E99249394A12CB12C0E943F02672BDE
:10096000682B692B41F40E943F02623071058105BA
:10097000910508F40FC10E943F02C0904101D09040
:100980004201E0904301F09044016C157D058E0515
:100990009F0540F4609341017093420180934301AD
:1009A00090934401C0904101D0904201E0904301F6
:1009B000F09044019B01AC012C193D094E095F09DF
:1009C00069017A013AEFC316D104E104F10408F495
:1009D000E1C0609341017093420180934301909381
:1009E00044018092F0019092F101A092F201B09244
:1009F000F3011092F4011092F5011092F601109299
:100A0000F7018091E8019091E901A091EA01B0918C
:100A1000EB018093EC019093ED01A093EE01B09374
:100A2000EF010E943F026093E8017093E901809317
:100A3000EA019093EB010E943F026093E4017093FE
:100A4000E5018093E6019093E7010E943F026B016C
:100A50007C0164E271E080912402909125020E9461
:100A600079022AE041E050E060E070E080912402E9
:100A7000909125020E948E026BE271E08091240227
:100A8000909125020E9479022AE0B701A601809187
:100A90002402909125020E948E026DE271E0809105
:100AA0002402909125020E9479028091E8019091A0
:100AB000E901A091EA01B091EB01B701A601481B41
:100AC000590B6A0B7B0B2AE080912402909125023E
:100AD0000E948E026DE271E08091240290912502C5
:100AE0000E9479024091E8015091E9016091EA0188
:100AF0007091EB018091EC019091ED01A091EE01DC
:100B0000B091EF01481B590B6A0B7B0B2AE08091D7
:100B10002402909125020E948E026FE271E0809182
:100B20002402909125020E9479020E943F02AB01AB
:100B3000BC012AE080912402909125020E948E023D
:100B4000E0902402F090250261E371E0C7010E9469
:100B5000790261E271E0C7010E9479020E943F02BE
:100B60006B017C012B013C0145E0440E511C611CD2
:100B7000711C0E943F026C157D058E059F0548F58E
:100B80000E943F026093E8017093E9018093EA01BB
:100B90009093EB010E94670264EF71E084EF91E0B3
:100BA0000E944B0264EF71E084EF91E00E944B02DF
:100BB00064EF71E084EF91E00E944B020E946702B3
:100BC00068EB7BE080E090E00E9405020E94D60185
:100BD000C4CE461657066806790658F6D1CFA1E26C
:100BE0001A2EAA1BBB1BFD010DC0AA1FBB1FEE1FA7
:100BF000FF1FA217B307E407F50720F0A21BB30BF2
:100C0000E40BF50B661F771F881F991F1A9469F76D
:100C100060957095809590959B01AC01BD01CF01C9
:100C20000895EE0FFF1F0590F491E02D099481E0E7
:0C0C300090E0F8940C941C06F894FFCFA0
:100C3C00000000006701D000FE00B4012F010D017F
:100C4C002101564D4450565F317C315F564D445016
:100C5C00560D0A00564D4450455F003A323A007C1E
:080C6C00005F564D44504500A5
:00000001FF
